:1000000083168E18DC28DC2883120C18C52A8B185E
:10001000312C032B82072834283428340834013447
:1000200006340C3480344034003482075734413471
:1000300052344D3449344E344734203455345034DE
:10004000003452344534413444345934003420347B
:100050002034203420345334543441344E34443426
:100060004234593400344534583450344F345334C6
:100070005534523445342034543449344D344534A5
:1000800000345334453454342034543449344D34DA
:10009000453400344D344F3454344F3452342034CA
:1000A0004F345634453452344C344F344134443454
:1000B0000034533448345534543454344534523471
:1000C00020344A3441344D344D34453444340034C2
:1000D0002034203420342034203455344834313412
:1000E0003034323400342034203444344F344F34EC
:1000F000523420344F34503445344E34213400349B
:100100005034523445344534583450344F345334D9
:100110004534203450345534523447344534003457
:100120004E344F3454342034523445344134443402
:10013000593400343F398207303431343234333467
:100140003434353436343734383439346134623405
:1001500063346434653466346734683469346A34CB
:100160006B346C346D346E346F347034713472347B
:1001700073347434753476347734783479347A342B
:1001800041344234433444344534463447344834AB
:1001900049344A344B344C344D344E344F3450345B
:1001A000513452345334543455345634573458340B
:1001B00059345A3426342A3483018B018C0120307F
:1001C00084008001840A841FE128C921B8228B178A
:1001D00083123C2328241524A521DE21E22152305C
:1001E0009721B2210B309721E4217830C7000330EA
:1001F000C600FC287A309721C411E021E421071AB7
:10020000B221C419FA28E62103181029F221031893
:1002100050290A22BA21FD28DE21E421B821F22842
:100220001D301321F22897213E08B9003F08B8007D
:1002300099234121E621031841297A22031C1A2916
:10024000AD003908B2003808B100B1232D08B0075D
:100250000318AF0A03302F02031C3A29031D362965
:10026000E7303002031C3A2903193A290301AD0093
:10027000AF00B0003008B9002F08B800992354220D
:100280001A292830BA00A711861C4129A71D442924
:100290003908BE003808BF0008002B301321F228AF
:1002A000A521071AF228AC213E083F0403194D2965
:1002B00000309721E2210715BA0ABA0A0830BC00BB
:1002C0000130BB000130BA000301A700071A8F29D3
:1002D00028308818C200A71A8F29A71C66291D304C
:1002E00097213E08B9003F08B80018232830C10004
:1002F000C20027129923AC212C2328308818C20071
:10030000A71A8F29271D7B2939080038031D8D293D
:100310003808003803190C29B803B9037A29B82121
:100320000C2944144411EC282B3097210800612338
:100330002E08083A03196823AE0A2C081520003845
:10034000031908006B23AC0A9829071E08005D30CA
:100350009721071AA9290800441044118815FF3075
:10036000C5000800441444158811FF30C50008007A
:1003700044144411441CAE294419B429C41C080077
:100380009630C500C410881DC7298811080088153B
:100390000800850186018701880189018316FF30E5
:1003A00085000F308600303087000230880004302E
:1003B00089008117831209148914080007150800A1
:1003C0000711080007140800071008002830A800CB
:1003D0002710031086180800271CE929A80BE82914
:1003E000031408002830A8002710031086190800FD
:1003F000271CF529A80BF429031408002830A800AD
:100400002710031088180800271C012AA80B002AAF
:1004100003140800BA0ABA0A0130BC000130BB005C
:100420002930BA000301A700851A0800A71C142A66
:10043000C60B1D2AC60AE0211E2ADE21023018231F
:10044000A718262A851E202AE0210A2AE021033047
:100450001823A7182E2A851E292A0A2AE4211130DA
:100460009721BA0ABA0A0130BC000130BB0029301A
:10047000BA000301A700851E312AA71C3B2AE621EA
:100480000318EC28F2210318EC20BA0ABA0A01304A
:10049000BC000130BB002930BA000301A700851A57
:1004A0003F2AA71C4F2AEC282830A8002710091043
:1004B000000000000000000000000000000000003C
:1004C00005081F391F3AAD0009148910000000000B
:1004D00000000000000000000000000005081F39B7
:1004E0001F3A89142D04031D542A271C572AA80BD0
:1004F000562A08000910000000000000000005084E
:100500001F391F3A031D932A0914891000000000A7
:100510000000000005081F391F3A031D932A03102D
:10052000091489140800AD002830A8002710050818
:100530001F391F3A2D06031D8F2A271C972AA80B47
:10054000962A0430A800AD0DAD0DAD0DAD0D03180C
:10055000AB2AA80BA62A0301891C0530A807A80A04
:100560000A302802031806300A3E0F390314902A75
:100570008312F4308F0047308E008C0183160B17E6
:100580000C1483129001101408000C10A200030E2A
:10059000A3000F08A5000E08A4000F082502031DE4
:1005A000C92A240803104B3E8E000318A50A25080B
:1005B000F43E8F002714BD18FC2AC50BE02AC41492
:1005C000C10BE32A2716C20BE62AA716C30BE92A9A
:1005D0002717BA0BFC2A6430BA00A715C00BF12A02
:1005E000A717BB0BFC2A0A30BB002715C70BF92A3B
:1005F000C415BC0BFC2AA714A60A26088600230EE5
:100600008300A20E220E0900A800271C052B27102C
:10061000A80B052BAA088800892BFA301023FA3082
:10062000A8002710271C122B2710A80B122B08003C
:10063000BA0ABA0ABC006430BA000A30BB0003012F
:10064000A7000800A8006430BA00A711A71D262B38
:10065000A711A80B262B0800071A2F2B0800BD1482
:1006600007116430B600271C332B071A2F2BB60B4B
:10067000332B0715BD100800871307133030AA006D
:10068000143004233030AA00063004233030AA008E
:10069000023004232030AA00023004230301AC00FE
:1006A0000230A80087130713271C542B2710A80B10
:1006B000542B2C080A200038031908006D23AC0ABB
:1006C000502BAC000301AE0001306D230330102B22
:1006D000C0306D23942B07176E2B07138713AD00C3
:1006E0002B080F39AB002D08F0392B048800871731
:1006F00000000000000000000000000000000000FA
:10070000000000008713000000002D0EF0392B04BC
:1007100088008717000000000000000000000000B3
:100720000000000000008713A030A800A80B962B43
:100730000800FB30A705C5306D233808B100390823
:10074000B200CB2330089A206B233508B10036085D
:10075000B200CD2330089A206B2336089A206B23F1
:1007600008000A30B4000301B3001030A8000301F0
:10077000AF00B0000310B30CB40C031CC52B32083F
:10078000B0070318AF0A3108AF070310B20DB10D5F
:10079000A80BBA2B08006430CE2B0A30B40003013A
:1007A000B3001030A8000301AF00B000B500B600E0
:1007B0000310B20DB10DB60DB50D0310B00DAF0D98
:1007C00035083302031CEC2B031DF32B36083402CF
:1007D000031CEC2B031DF32B3408B602031CB503DA
:1007E0003308B5023014A80BD82B08000800A7184E
:1007F000FC2B3D18002C08004330F6239721042CD5
:10080000F62334309721042CBA0ABA0A0330BC000C
:100810000130BB000130BA000301A700E021E42150
:100820008619042CA71C0E2CEC28BB308B138316C6
:10083000920083128B175D309500030197000730FB
:10084000920008003C309700080003019700080060
:100850008B1383160614011383128B178B100B1640
:1008600008008B10A200030EA3003D14230E83008A
:06087000A20E220E090099
:02400E00F21F9F
:00000001FF
