:040000008316F12A48
:0800080083120C18882A0B1961
:10001000492AAC2A00308A002C0882072034203478
:1000200020345734413452344D3449344E344734FB
:1000300020345534503400342034203420342034DB
:100040002034523445344134443459340034433438
:100050007534723469346E346734203453347034F8
:100060006534653464340034203420342034203442
:100070004F345634453452342034543445344D349E
:100080005034003420342034203448344134543443
:100090004334483420344F34503445344E340034E3
:1000A000543465346D34703420344C3469346D34D8
:1000B00069347434203445347834633465346434BA
:1000C000003420342034433461346C346934623475
:1000D00072346134743469346F346E3400342034D3
:1000E00020342034553448343134303433342034DF
:1000F0005634653472342E340034203420342034A5
:10010000203420344534523452344F345234213464
:10011000003444346F346F34723420346E346F34AE
:100120007434203443344C346F3473346534643461
:1001300021340034533468347534743420344E34EC
:100140006F34743420344F34703465346E3400347A
:10015000533468347534743420344E346F3474340A
:10016000203443346C346F34733465346434003475
:100170004D346F3474346F347234203454346934F1
:100180006D3465344F347534743400342034203485
:1001900020342034203443347534723469346E345E
:1001A000673400345634653472342E34203430349D
:1001B0002E343134373434342034313430342F3425
:1001C000333431342F3430343434003454346134E3
:1001D00062346C34653420344234613463346B34BB
:0C01E0002034533465346E347334003422
:1002000001308A002C0882072034203446346934B7
:100210006E34643469346E346734203448346F3457
:100220006D346534213400342034203420342034BB
:100230002034413462346F347234743421340034E5
:100240002034503472346534733473342034413480
:100250006E34793420344B34653479342E340034A0
:100260002034203420342034203453345434413466
:100270004E344434423459340034203443346F34DF
:100280006F346C3469346E346734203446346134EE
:100290006E3420344F344E340034203443346F34C1
:1002A0006F346C3469346E346734203446346134CE
:1002B0006E3420344F3446344634003420342034F5
:1002C0002034543465346D347034653472346134A0
:1002D000743475347234653400342034203420345E
:1002E00020342034203420344F344B340034203434
:1002F00020345034723465347334733420344134D0
:100300006E34793420344B346534793400342034FD
:1003100020342034203474346F3420345234653423
:1003200073347434613472347434003420342034BF
:1003300020342034203443346F346F346C346934C7
:100340006E34673400345334743461346E3464343E
:1003500062347934203443346F346E346634693413
:1003600072346D343F3400342034203450347234CD
:10037000653473347334203445346E3474346534E6
:100380007234003401308A0040088207FC2E0800D5
:100390000800080008009A2E080008000800A02E97
:1003A00001308A002C088207013401340134013401
:1003B0000134013401340134103410341034103459
:1003C0001034103410341034FF340034003400344E
:1003D000003400340034FF34FF340034FF34FF3481
:1003E000FF34FF340034FF34FF3400341C341C3439
:1003F0001C341C340034FF3400306F2D61306F2505
:10040000C830722D06250E306F2D02308A002C0860
:1004100082072834283428340834013406340C3454
:1004200080344034003402308A00400882070800DB
:1004300008008B2C0800042C080008000F2F08006F
:100440000800062519306F2D02308A004108820706
:1004500023342B3434343D3445344E3457345F34F4
:10046000683471347A3482348B3494349C34A234BA
:10047000B134B634BF34C834D13408142B14080056
:1004800008102B1008008811AB1108008815AB1557
:100490000800A200030EA3003A088100C415061F3D
:1004A0007F2A861B7E2A861E6A2A38080A3C031980
:1004B0005C2A0318632A802A3708283C0319802AFB
:1004C0000318632A802AB70A3708FF39031D7C2ADC
:1004D000B80A7C2A881C772A380837040319802A2E
:1004E000B7033708FF3A031D7C2AB8037C2A21088A
:1004F000FF390319802AA10386177F2A8613822ACF
:1005000006138613230E8300A20E220E0B11090080
:10051000A200030EA3000F08A5000E08A4000F08F8
:100520002502031D8B2A240803104B3E0318A50A3D
:100530002508F43E8F00FF30C700BB034508460482
:100540000319A72AC5034508FF3A0319C603230E5A
:100550008300A20E220E0C100900CF30BC00073021
:10056000BD000030BE00C12A8730BC001330BD0082
:100570000030BE00C12A1F30BC00BF30BD000230B9
:10058000BE0043123B08BF003B08AE003F02BC0266
:100590000318DA2A4315BD033D08FF3A031DDA2A82
:1005A000BE033E08FF3A031DDA2A43160301BC00CE
:1005B000BD00BE002E08BF000800A800471CDE2AB0
:1005C0004710A80BDE2A2A0888002E2DFA30E922CF
:1005D000FA30A8004710471CEB2A4710A80BEB2A5B
:1005E000080083160030880089008312FF308900DC
:1005F000C30183018B018C018501860108308700CE
:10060000880089018316FF3085001F308600303056
:1006100087000230880004308900831286080B109E
:100620004A085A3A03191F2B203084008001840A9B
:10063000841F162B0730C100CD002422BA0083127C
:10064000F4308F0047308E008C0183160B170C148A
:1006500083129001101483160330810083123A082C
:1006600081008B1783124622D8244A085A3A03196C
:10067000702F5A30CA000711FE218715B422431A81
:10068000442BC422EC253F2B07110625EC25091D20
:100690004A2BAA25861C4D2BAD25071E502BBF25A6
:1006A000FC216724BB2246228714C42256257324CA
:1006B000431E5B2B43228818652B2108FF39031D3D
:1006C000622B8424431E652B662B542B06250222A5
:1006D00007114322EC25CD249824431C722B44118E
:1006E00043101322692B08003D22E622871E792B36
:1006F000C925071E7C2BD325881C7F2BC5254415B7
:100700004418832B8B240127392607153D22E62226
:10071000871E8B2BC92507148711B830C5000B30F5
:10072000C6004508460403199A2B0619982B9B2BE3
:10073000EC25912BDA25C3111030C5002730C600F7
:1007400044126E24C4147824851EB62BC418A32B1F
:1007500044167824851EB62BC41CA92B061FB52B66
:100760007824851AB42BB62BAE2BC315C4140613EC
:1007700086138B128715B830C5000B30C6004508AC
:1007800046040319C72B0919C62BC82BBF2BE92513
:10079000C31DCB2B1926E822672404271030C5007F
:1007A0002730C600061FE12B7824C418D22B441230
:1007B000061FE12B7824C41CD82B061FE12B7824BC
:1007C000DD2B881CE42BC525861340220710C501AC
:1007D000C60106250222EC25CD24871EF02B6623B8
:1007E0009824431CF62B4411431013224508460459
:1007F000031D022CFA30C500C6010719012C07158C
:10080000022C0711EB2B08003D22E622871E092C43
:10081000C925071E0C2CD325881C0F2CC52507279E
:100820003C2607153D22E622871E172CC9250714F2
:10083000C3111030C5002730C60044126E24DD26D7
:10084000851E252C061F252C1F2CC4140613861369
:100850008B128711B830C5000B30C600450846041E
:100860000319372C0619352C382CEC252E2CDA25BB
:10087000D030C5000730C600450846040319422C95
:10088000EC253C2C8715B830C5000B30C600450858
:10089000460403194F2C09194E2C502C472CE925DE
:1008A000E82207276B241030C5002730C600F52644
:1008B000061F5B2C572C881C5E2CC5258613E52350
:1008C00008000630A1000617C4118B160800861216
:1008D0000A27612408008612612408008616B701E1
:1008E000B80161240800EC25061B772C8B12080048
:1008F000EC25AF2645084604031D0800C22DEC2553
:10090000061B832C8B1208002108FF39031D8A2C3B
:1009100006138B1208000711012721228A2644148E
:10092000EC259824431C962C4310C221902C0800DF
:10093000C71C0800C71005081F391F3AAE0003196D
:10094000BC2C3906031DC72C2608FF3A031DBA2C00
:10095000C3180800C31443143908AE000430B000B3
:10096000AE0C0318B52CB00BB02C30080918053E9E
:10097000C0000800A60308000918C12C091489103A
:10098000C72C8918C62C09148914C72C09102E08E5
:10099000B9000A30A600C3100800471D080047111F
:1009A0008619D52CC20B0800742B0A30C20008002F
:1009B000871307133030AA001430DD223030AA002C
:1009C0000630DD223030AA000230DD222030AA00BD
:1009D0000230DD220301AC000230A80087130713A8
:1009E000471CF02C4710A80BF02C052200380319E7
:1009F000FC2C1225AC0AEC2C0301AC00D0211025F4
:100A0000AC0A2C08283A03190800FE2C01301225E4
:100A10000330E92A80300D2DC0301225392D303EAB
:100A20000717132D07138713AE002B080F39AB00E0
:100A30002E08F0392B048800871700000000000002
:100A4000000000000000000000000000000087130C
:100A5000000000002E0EF0392B04880087170000DC
:100A60000000000000000000000000000000000086
:100A70008713A030A800A80B3B2D08008530122555
:100A80000030B10039086225203010250030B10057
:100A90004008622D4527300843263508B100360846
:100AA000B20047273008432636080F2DC2301225E2
:100AB0003E08B1003D08B2004A2520301025003024
:100AC000B1003808B200452730080F253508B100BD
:100AD0003608B200472730080F2536080F2DAC0026
:100AE0000A25742DAC000C250301AD000A20003846
:100AF00003197E2D1025AD0AAC0A762D2D08F0398C
:100B0000031D0800AD0A203010257E2DAC000A25FB
:100B10008B2DAC000C250301AD000021003803191A
:100B20007E2D1025AD0AAC0A8D2D8925982D7225B4
:100B3000402207104530BA00881CA52D6724732475
:100B4000061FA52D881CA52D9F2D06138B12742F13
:100B50006F306F2DA8259A30972D432242306F2594
:100B6000923089258618B22D0222462243109824FD
:100B7000431CB62D4008003A031DB62D442BA82572
:100B80003430972DA825AA30972DA8250030892527
:100B90001C2EA8257B3072254022EC25431098247A
:100BA000431CCD2D662BA82534307225EC25071A61
:100BB000D62D662BA8258C3072258715EC25CD24E3
:100BC00043109824431CDE2D4310402207101322AB
:100BD000662B9A306F25F22D061A080026306F25F5
:100BE000393089254530BA00402292308925871056
:100BF00043220710861CFD2DF72DC4144316431EF7
:100C00000F2EAD22C41C0A2EC4105A30862569301E
:100C100089250F2E43167330862583308925C422FB
:100C200043109824431CFF2D442BA8250030892510
:100C30001C2EA825D830722540220710EC25431021
:100C40009824431C1E2E4530BA0006250030892505
:100C5000881C302E67247324061F302E88182B2EF4
:100C600006138B12662B0830C900E622C90B352EFD
:100C70003D2B0625B8306F2D062553306F2D2030C3
:100C800010252030102DC41E4A2EFF39031D4A2E78
:100C90002030102DC4120F2D8D3012254108031065
:100CA000AE00AE0DAE0D2E07B2000301B100C416AA
:100CB0004A2D4B08FF3903190800B600143C031CE9
:100CC00008004108B500360203197F2EB603031051
:100CD000B60C3508FF3903197A2EB5030310B50C8D
:100CE000350836020319080003187A2E3608C33E69
:100CF0001225882E3608C33E12250230102DB60369
:100D00000310360CC33E1225411C882E0430102DD2
:100D10000330102D0C253F26003010250301CB0099
:100D20004B08143C031C972E5926CB0A902E0130F9
:100D300010254C2E4108133C031C0800C10AA72EA5
:100D40004108043C03180800C103411CAB2E4108B4
:100D5000CB0059264C2E0310410C7B264C2EC41D73
:100D60000800C4113808AF003708B00038082F0257
:100D7000031DB22E441EC42E3008283CB000031CB4
:100D8000AF0A2F080A3CAF0003102F0CB00C031859
:100D90000800FF39031DD92E3008233E0318D92E31
:100DA000B000242230020318D92E3008BA00C4142F
:100DB00008002422BA00C41008003808AF00370821
:100DC000B00038082F02031DDD2E2F08043C031944
:100DD000EC2E0318F52EF32E3008FD3C0319F32EEC
:100DE0000318F52EF32E06138613EC25450846044A
:100DF000031D0800C22D08004108CD00441D662BCC
:100E0000832B4D08C10008001430C10008000330D6
:100E1000C10008002830B7000A30B80008009F3031
:100E20008625B03089250830A800FA30A90047107F
:100E3000EC25471C212F4710A90B212FA80B152F9C
:100E4000662B43109824431C182F4008003A031DBA
:100E5000182F07112C308625861C312F432239305C
:100E6000332F4622493089258710861C3A2F88194E
:100E70002C2F3C2F881D2C2F43109824431C342FDB
:100E80004008003A031D342F442B6430482F0A30A9
:100E9000B4000301B3001030A8000301AF00B0009C
:100EA000B500B6000310B20DB10DB60DB50D0310AF
:100EB000B00DAF0D35083302031C662F031D6D2FD7
:100EC00036083402031C662F031D6D2F3408B6024A
:100ED000031CB5033308B5023014A80B522F0800C9
:100EE000103086251C30892543109824431C742F0C
:020EF000442B91
:02400E00F21F9F
:00000001FF
