:1000000083168E180A280A2883120C18A6298B1822
:10001000CB29CB2983160030880089008312FF305A
:100020008900C401C3013B2183018B018C01203075
:1000300084008001840A841F1928CC2199218B1700
:1000400083123B2107182528272806182C28C31FB0
:100050002C28C31344123B2186192F285221861BBA
:1000600051281E30C500C6014508460403193D2825
:10007000861F3B28512847213428C317C312C41DAB
:100080005028061C502844173B216430C500C60187
:100090004508460403194E284721482844163B21A9
:1000A0003B21861F5928C4195928C31F5928C31337
:1000B0003B21861A97281E30C500C6014508460414
:1000C00003196628861E652897285E284412C412E4
:1000D000C313C31143124313C3163B213230C5006F
:1000E000C6014508460403197B28861A7A2832304F
:1000F000C500C60171283230C500C6014508460456
:1001000003198828861E87283230C500C6017E283C
:10011000C3123B213230C500C6014508460403190D
:100120009728861A96283230C500C6018D28061AEF
:10013000BD281E30C500C601450846040319A52880
:10014000061EA328BD2847219C28C312871CA92866
:10015000AE28C41DAD28C411AE28C4153B213230D1
:10016000C500C601450846040319BD28061ABB2868
:100170003230C500C6014721B2280619E8281E30D2
:10018000C500C601450846040319CB28061DC92829
:10019000E5284721C228C31243163B210718D1285E
:1001A000D3280618D728C41DD728C4163B213230BF
:1001B000C500C601450846040319E5280619E328C9
:1001C0003230C500C6014721DA284312C4123B2150
:1001D000061B3929C31FED283729441EF02837296B
:1001E0008618F32837291E30C500C6014508460485
:1001F0000319FF28061FFD2837294721F628441335
:100200003B216430C500C6014508460403190A298C
:100210004721042944163B21C31243173B21861C66
:100220001E296430C500C6014508460403191D296E
:1002300086181B2927294721142927296430C5003E
:10024000C6014508460403192729472121294412DC
:100250003B213230C500C601450846040319372941
:10026000061B35293230C500C60147212C2943130E
:100270003B2122280800440888000130890007300B
:100280008900430888008901073089000800861A20
:100290004F292008FF39031D4E29662851291E3099
:1002A000A0000800C31F55299529861858299529AB
:1002B000A710871C5C29A714441E5F2995291E30AE
:1002C000C500C6014508460403196B29861D692926
:1002D000952947216229C315C31244133B21643079
:1002E000C500C6014508460403197829472172292B
:1002F00044163B21861C87294721A71C8229871881
:10030000822984298618862944123B217C2932308F
:10031000C500C60145084604031995298619932985
:100320003230C500C60147218A294412C3113B213E
:1003300008008312F4308F0047308E008C01831642
:100340000B170C1483129001101408000C10A2005B
:10035000030EA3000F08A5000E08A4000F08250235
:10036000031DAA29240803104B3E0318A50A2508DB
:10037000F43E8F002008FF39031DA0034508460402
:100380000319C729C5034508FF3A0319C603230EFD
:100390008300A20E220E09008501860187018801D3
:1003A00089018316FF308500FF30860033308700D7
:1003B00000308800003089008113831286080B10FA
:1003C0000914891408000A30B4000301B300103086
:1003D000A8000301AF00B0000310B30CB40C031C61
:1003E000F7293208B0070318AF0A3108AF07031026
:1003F000B20DB10DA80BEC2908006430002A0A30B8
:10040000B4000301B3001030A8000301AF00B00036
:10041000B500B6000310B20DB10DB60DB50D031049
:10042000B00DAF0D35083302031C1E2A031D252A0B
:1004300036083402031C1E2A031D252A3408B6027E
:10044000031CB5033308B5023014A80B0A2A0800B0
:02400E00F21F9F
:00000001FF
